:020000040800F2
:10000000000002203D310008612C0008652C00082A
:10001000692C00086D2C0008712C000800000000FD
:10002000000000000000000000000000752C000827
:10003000792C0008000000007D2C0008812C0008AD
:100040008D3100088D3100088D3100088D31000898
:100050008D3100088D3100088D3100088D31000888
:100060008D3100088D3100088D3100088D31000878
:100070008D3100088D3100088D3100088D31000868
:100080008D3100088D3100088D3100088D31000858
:100090008D3100088D3100088D3100088D31000848
:1000A0008D3100088D3100088D3100088D31000838
:1000B0008D3100088D3100088D3100088D31000828
:1000C0008D3100088D3100088D3100088D31000818
:1000D0008D3100088D3100088D3100088D31000808
:1000E0008D3100088D3100088D3100088D310008F8
:1000F0008D3100088D3100088D3100088D310008E8
:100100008D3100088D3100088D3100088D310008D7
:100110008D3100088D3100088D3100088D310008C7
:100120008D3100088D3100088D3100088D310008B7
:100130008D31000800000000000000008D31000833
:100140008D3100088D3100088D3100088D2C00089C
:100150008D3100088D3100088D3100088D31000887
:100160008D3100088D3100088D3100088D31000877
:100170008D3100088D3100080000000000000000F3
:080180008D3100088D310008EB
:1001900010B5054C237833B9044B13B10448AFF3C1
:1001A00000800123237010BDCC010020000000005E
:1001B0008C400008084B10B51BB108490848AFF344
:1001C00000800848036803B910BD074B002BFBD023
:1001D000BDE81040184700BF00000000D00100201B
:1001E0008C400008CC01002000000000000000004E
:1001F00001F0FF01102A2BDB10F0070F08D010F8D8
:10020000013B013A8B422DD010F0070F42B3F6D1DB
:10021000F0B441EA012141EA014122F007047FF0F4
:1002200000070023F0E80256083C85EA010586EA4B
:10023000010685FA47F5A3FA87F586FA47F6A5FA87
:1002400087F68EB9EED1F0BC01F0FF0102F0070293
:1002500032B110F8013B013A83EA010313B1F8D13E
:100260000020704701387047002D06BF354603381F
:10027000073815F0010F07D1013015F4807F02BF58
:10028000013015F4C03F0130F0BC0138704700BFA9
:1002900010B50446074B1B680748A0FB03308009D4
:1002A00000F096F8002221464FF0FF3000F052F89F
:1002B000002010BD20010020D34D621008B50B4B6B
:1002C0001A6842F400721A601A6842F480621A6076
:1002D0001A6842F480721A60032000F029F80020A6
:1002E000FFF7D6FF02F088FC002008BD003C02406A
:1002F000024A136801331360704700BFF801002001
:10030000014B1868704700BFF801002030B583B07A
:100310000190FFF7F5FF0546019CB4F1FF3F00D0C7
:100320000134FFF7EDFF401BA042FAD303B030BD0C
:10033000074AD36823F4E0631B041B0C000200F49B
:10034000E060184340F0BF6040F40030D060704778
:1003500000ED00E030B4164BDB68C3F30223C3F1B9
:100360000704042C28BF04241D1D062D01D9DD1E01
:1003700000E00025012303FA04F4013C2140A940D8
:10038000AB40013B1A400A43002806DA00F00F0098
:100390001201D2B2074B1A5407E01201D2B200F197
:1003A000604000F5614080F8002330BC704700BF1A
:1003B00000ED00E014ED00E0420900F01F00012311
:1003C00003FA00F0014B43F82200704700E100E01F
:1003D0000138B0F1807F0AD2064B5860F021064AFE
:1003E00082F823100020986007221A6070470120CD
:1003F000704700BF10E000E000ED00E0042805D1E8
:10040000054A136843F0040313607047024A1368F7
:1004100023F004031360704710E000E0704700BF52
:1004200008B5FFF7FBFF08BDF0B583B00024CDE0B1
:100430000123A3400A6803EA0205AB4240F0C580ED
:100440004A68022A01D0122A10D1E608083650F86C
:1004500026C004F0070297000F22BA402CEA020ED1
:100460000A69BA404EEA020240F826200268670094
:100470000326BE40F64302EA060E4A6802F0030273
:10048000BA404EEA020202604A6802F1FF3EBEF143
:10049000010F03D9112A01D0122A10D1826806EA6D
:1004A000020ECA68BA404EEA02028260426822EA3C
:1004B00003034A68C2F30012A2401A434260C368B1
:1004C0001E408B68BB403343C3604B6813F0805FB2
:1004D0007BD000230193404B5A6C42F480425A6413
:1004E0005B6C03F480430193019BA608B21C3B4B59
:1004F00053F8227004F003039B000F229A4027EA6E
:100500000207374A90421DD002F5806290421BD00C
:1005100002F58062904219D002F58062904217D0B5
:1005200002F58062904215D002F58062904213D0AD
:1005300002F58062904211D002F5806290420FD1A4
:1005400007220EE000220CE001220AE0022208E06D
:10055000032206E0042204E0052202E0062200E075
:10056000082202FA03F33B4302361C4A42F82630C3
:100570001C4B1A68EB4302EA03064F6817F4803FEE
:1005800001D045EA0206174A1660526803EA0206DD
:100590004F6817F4003F01D045EA0206114A566041
:1005A000926803EA02064F6817F4801F01D045EAFB
:1005B00002060C4A9660D26813404E6816F4001F7B
:1005C00001D045EA0203074AD36001340F2C7FF6BD
:1005D0002FAF03B0F0BD00BF00380240003801402B
:1005E00000000240003C01402DE9F04383B0074683
:1005F0000D46D0F80080CA00521A93000344DE6C06
:100600001A6DB61A1B6C9E4200D91E4606F10309EC
:100610004FEA99091EE09E1AC5EBC50293003B44C0
:100620001B6C9E4200D91E4606F103094FEA990948
:10063000EB005B1B9C003C44616C3B7C0093B3B2C1
:10064000EAB2404601F0CCFB636C33446364236D33
:1006500033442365414608EB451303F510639B695A
:100660009BB2994509D2EA00521B93003B441A6D94
:10067000DB6C9A4201D2002BCDD146B9012303FA9B
:1006800005F5D1F8343823EA0505C1F834580020BF
:1006900003B0BDE8F08300BF00286AD0F0B58BB08E
:1006A0000446032380F8B93302F06CFB206800F0A5
:1006B000E5FF254655F8107B6E460FCD0FC60FCDD2
:1006C0000FC695E8030086E80300231D0ECB3846CD
:1006D00000F092FF0021206800F0D6FF002210E019
:1006E000D100891A8B002344012183F8391083F843
:1006F0003820DA87002183F83B1019645964D964E3
:1007000001320E2AECD9002218E0D100891A8B00A0
:100710002344002183F8F91183F8F821DA8783F85C
:10072000FB11C3F80012C3F80412C3F80C122368BB
:1007300002F1400003EB8003596001320E2AE4D934
:10074000254655F8107B6E460FCD0FC60FCD0FC650
:1007500095E8030086E80300231D0ECB384600F021
:10076000A9FF012384F8B933206801F0E3FB0020DE
:1007700001E0012070470BB0F0BD00BF90F8B83326
:10078000012B0ED010B50446012380F8B833006861
:1007900001F0C4FB206800F06BFF002084F8B80370
:1007A00010BD0220704700BF2DE9F04704460668DF
:1007B000304601F0FBFB002840F09382206801F0F6
:1007C000C5FB002800F08D82206801F0BFFB10F00F
:1007D000020F04D02268536903F0020353612068BA
:1007E00001F0B4FB10F4002F5CD0206801F0B2FBE4
:1007F0000746002553E017F0010F4ED05FFA85F948
:100800004946206801F0B6FB804610F0010F31D058
:1008100006EB45130122C3F8082B03F53063226968
:10082000012A12D1E900491B8A002244D2F80012A1
:100830001B69C3F31203C91AC2F81012D2F80412CA
:10084000D2F800320B44C2F804324946204602F086
:10085000D5FA2369012B0DD165B9C5EBC50293000B
:100860002344D3F80C322BB904F56F7201212068B0
:1008700001F0BCFB18F0080F07D0204602F0B6FAD2
:1008800006EB45130822C3F8082B18F0100F04D00C
:1008900006EB45131022C3F8082B01357F08002F03
:1008A000A9D100E00025206801F050FB10F4802F52
:1008B00069D0206801F056FB0746002561E017F07B
:1008C000010F5CD05FFA85F94946206801F05CFBB6
:1008D000804610F0010F2BD0012202FA05F0D6F865
:1008E000343823EA0003C6F8343806EB4513C3F85E
:1008F00008292369934207D1EA00521B930023443D
:10090000596C1A6C0A445A644946204602F082FA2D
:100910002369012B0CD15DB9C5EBC50293002344BB
:10092000DB6C2BB904F56F720121206801F05EFBCE
:1009300018F0080F04D006EB45130822C3F8082965
:1009400018F0100F04D006EB45131022C3F8082945
:1009500018F0400F04D006EB45134022C3F80829D5
:1009600018F0020F04D006EB45130222C3F8082941
:1009700018F0800F03D029462046FFF735FE0135D9
:100980007F08002F9BD1206801F0E0FA00280DDAE3
:10099000D6F8043823F00103C6F80438204602F0E4
:1009A00073FA2268536903F000435361206801F031
:1009B000CDFA10F4006F0CD0D6F8083813F0010F00
:1009C00002D0204602F048FA2268536903F400631B
:1009D0005361206801F0BAFA10F4805F4FD03746B7
:1009E00006F50068D8F8043023F00103C8F8043095
:1009F0001021206800F004FF002207E007EB4213FB
:100A0000FF21C3F80819C3F8081B013263689A4232
:100A1000F4D34FF0FF33C8F81830D8F81C3043F047
:100A20000113C8F81C30236B63B1D8F8843043F04D
:100A30000B03C8F88430D8F8443043F00B03C8F8EF
:100A400044300BE0D8F8143043F00B03C8F81430EE
:100A5000D8F8103043F00B03C8F81030D6F800383F
:100A600023F4FE63C6F8003804F56F72217C206819
:100A700001F0BCFA2268536903F480535361206883
:100A800001F064FA10F4005F00F09380206801F038
:100A900091FA2268D36823F47053D360206800F081
:100AA000DDFE50B90023E3604FF4007363612268F8
:100AB000D36843F41053D36073E00323E36040230F
:100AC000636100F093FD884B0344884A934205D844
:100AD0002268D36843F47053D36062E0844B0344CC
:100AE000844A934205D82268D36843F46053D360A4
:100AF00057E0A0F57403A3F510537F4A934205D83D
:100B00002268D36843F45053D3604AE0A0F1837362
:100B1000A3F5E743794A934205D82268D36843F4A2
:100B20004053D3603DE0764B0344764A934205D868
:100B30002268D36843F43053D36032E0724B0344ED
:100B4000724A934205D82268D36843F42053D36095
:100B500027E06F4B03446F4A934205D82268D3685D
:100B600043F41053D3601CE0A0F1B773A3F55853BE
:100B7000694A934205D82268D36843F40053D3608E
:100B80000FE0664B0344664A934205D82268D36857
:100B900043F4E053D36004E02268D36843F4C053C5
:100BA000D360204602F048F92268536903F40053E9
:100BB0005361206801F0CAF910F0100F45D0226887
:100BC000936923F010039361376A07F00F08C7F3A6
:100BD0004343022B1FD147F6F0731F4230D03F0929
:100BE0004FEAC80AC8EB0A034FEA8309A144C7F3D6
:100BF0000A02D9F80412304601F008F9C7F30A07CF
:100C0000D9F804323B44C9F80432D9F810321F44F1
:100C1000C9F8107214E0062B12D1082204F56F7186
:100C2000304601F0F3F8C7F30A174FEAC803C8EBE0
:100C300003018A002244D2F810323B44C2F8103239
:100C40002268936943F010039361206801F07EF9F4
:100C500010F0080F07D0204602F0E8F82268536928
:100C600003F008035361206801F070F910F4801F4D
:100C700008D0E9B2204602F013F92268536903F460
:100C800080135361206801F061F910F4001F08D04F
:100C9000E9B2204602F0FEF82268536903F400131B
:100CA0005361206801F052F910F0804F07D02046C0
:100CB00002F0FCF82268536903F080435361206816
:100CC00001F044F910F0040F0BD023685D6815F0B3
:100CD000040F02D0204602F0EFF8226853682B433D
:100CE0005360BDE8F08700BF405327FFFF340C007E
:100CF000401E1BFF3F420F007F4F12001FD6130004
:100D000060B6E5FE5FE3160000D3CEFE3F771B0022
:100D1000C05BB3FEBF9121001F753800E05459FE3F
:100D2000DF9C410090F8B833012B0BD010B504467E
:100D3000012380F8B833006801F0E0F8002084F85F
:100D4000B80310BD0220704770B54DB2002D07DA10
:100D500001F07F06C6EBC606B4003834044407E051
:100D600001F07F06C6EBC606B40004F5FC7404442B
:100D700001F07F012170ED0F6570A260E37005B195
:100D8000E180022B01D10023237190F8B833012BAD
:100D90000BD00546012380F8B8332146006800F0E7
:100DA0007DFD002085F8B80370BD022070BD00BF36
:100DB00010B54AB2002A07DA01F07F04C4EBC4047C
:100DC000A3003833034407E001F07F04C4EBC404FC
:100DD000A30003F5FC73034401F07F011970D20FE7
:100DE0005A7090F8B823012A0BD00446012280F8EB
:100DF000B8231946006800F09DFD002084F8B80370
:100E000010BD022010BD00BF70B501F07F06F500D7
:100E1000A91B8C0004F5FC740119AD1BAC00044443
:100E2000C4F80422C4F80C320023C4F8103284F849
:100E3000F93184F8F8610369012B05D1C6EBC605C9
:100E4000AC000444C4F8082226B9DAB2006800F005
:100E500017FF03E0DAB2006800F0E6FD002070BD85
:100E600001F00F01C1EBC1018B001844B0F8100272
:100E7000704700BF70B501F07F06F500A91B8C001C
:100E800038340119AD1BAC0004446264E3640023F0
:100E90002365012384F8393084F838600369012B15
:100EA00004D1C6EBC605AC000444A26426B9DAB28C
:100EB000006800F0E5FE03E0DAB2006800F0B4FD7F
:100EC000002070BD38B54AB2002A07DA01F07F046D
:100ED000C4EBC404A3003833034405E0C1EBC104F0
:100EE000A30003F5FC73034401249C7001F07F040C
:100EF0001C70D20F5A7090F8B823012A12D0054600
:100F0000012280F8B8231946006800F091FF2CB93F
:100F100005F56F72297C286801F068F8002085F8D3
:100F2000B80338BD022038BD10B54AB2002A07DA2E
:100F300001F07F04C4EBC404A3003833034405E08C
:100F4000C1EBC104A30003F5FC73034400249C70AF
:100F500001F07F011970D20F5A7090F8B823012A5E
:100F60000BD00446012280F8B8231946006800F02F
:100F700091FF002084F8B80310BD022010BD00BF0F
:100F800030B40468636A19B943EA0240A06218E009
:100F90000D46A06A03EB1040002308E003F1400176
:100FA00004EB8101496800EB11400133DBB2691E9B
:100FB0008B42F3DB40EA024005F13F0104EB810183
:100FC0004860002030BC70470368596200207047B9
:100FD00030B583B00446036813F0010F5AD09F4B1D
:100FE0009B6803F00C03042B0AD09C4B9B6803F016
:100FF0000C03082B0DD1994B5B6813F4800F08D0BC
:10100000964B1B6813F4003F44D06368002B41D11A
:101010009DE16368B3F5803F05D1904A136843F4BE
:101020008033136015E0B3F5A02F09D18B4B1A68FC
:1010300042F480221A601A6842F480321A6008E092
:10104000864B1A6822F480321A601A6822F48022D1
:101050001A6063687BB1FFF753F9054605E0FFF7B7
:101060004FF9401B642800F274817C4B1B6813F419
:10107000003FF4D00EE0FFF743F9054605E0FFF727
:101080003FF9401B642800F26681744B1B6813F41F
:10109000003FF4D1236813F0020F5AD06F4B9B68C6
:1010A00013F00C0F0AD06D4B9B6803F00C03082B58
:1010B0001BD16A4B5B6813F4800F16D1674B1B681A
:1010C00013F0020F03D0E368012B40F04681634820
:1010D000036823F0F8012369F82292FAA2F2B2FA27
:1010E00082F293400B43036033E0E368FBB10122DB
:1010F0005B4B1A60FFF704F9054605E0FFF700F9BE
:10110000401B022800F22B81544B1B6813F0020F86
:10111000F4D05248036823F0F8012369F82292FAC8
:10112000A2F2B2FA82F293400B43036011E0002274
:101130004B4B1A60FFF7E4F8054605E0FFF7E0F8CF
:10114000401B022800F20D81444B1B6813F0020F74
:10115000F4D1236813F0080F26D0636993B10122FC
:10116000404B1A60FFF7CCF8054605E0FFF7C8F8DA
:10117000401B022800F2F780384B5B6F13F0020F20
:10118000F4D011E00022374B1A60FFF7B9F805469A
:1011900005E0FFF7B5F8401B022800F2E6802F4B70
:1011A0005B6F13F0020FF4D1236813F0040F69D0C2
:1011B00000230193294B1A6C42F080521A641B6C75
:1011C00003F080530193019B274A136843F4807313
:1011D0001360FFF795F8054605E0FFF791F8401B0F
:1011E000022800F2C480204B1B6813F4807FF4D0E7
:1011F000A368012B05D1194A136F43F0010313674C
:1012000014E0052B09D1154B1A6F42F004021A673E
:101210001A6F42F001021A6708E0104B1A6F22F0B1
:1012200001021A671A6F22F004021A67A3688BB1D1
:10123000FFF766F8054607E0FFF762F8401B41F24A
:101240008833984200F29580044B1B6F13F0020F15
:10125000F2D017E0FFF754F805460EE000380240E0
:1012600000004742800E474200700040FFF748F8F8
:10127000401B41F2883398427DD8454B1B6F13F0D9
:10128000020FF3D1A369002B77D0414A926802F094
:101290000C02082A73D0022B46D100223D4B1A6063
:1012A000FFF72EF8054604E0FFF72AF8401B022856
:1012B00067D8374B1B6813F0007FF5D1E169236ACB
:1012C0001943636A47F6C07292FAA2F2B2FA82F246
:1012D00093401943A36A5B085A1E4FF4403393FAB4
:1012E000A3F3B3FA83F302FA03F30B43E26A4FF07A
:1012F000706191FAA1F1B1FA81F18A401343244A55
:1013000053600122234B1A60FEF7FAFF044604E003
:10131000FEF7F6FF001B022835D81D4B1B6813F0A3
:10132000007FF5D0002031E000221A4B1A60FEF752
:10133000E7FF044604E0FEF7E3FF001B022824D881
:10134000134B1B6813F0007FF5D100201EE0012035
:101350001CE003201AE0032018E0012016E003201F
:1013600014E0032012E0032010E003200EE003202D
:101370000CE003200AE0032008E0002006E0012042
:1013800004E0032002E0032000E0032003B030BDAE
:101390000038024060004742254B9B6803F00C0375
:1013A000042B3FD0082B01D02248704710B4204BAB
:1013B000586800F03F005B6813F4800F10D01E4B9C
:1013C000B3FBF0F01A4B5A6847F6C0710A4091FA25
:1013D000A1F3B3FA83F322FA03F303FB00F310E063
:1013E000144BB3FBF0F0124B5A6847F6C07402EA94
:1013F000040194FAA4F2B2FA82F221FA02F202FB98
:1014000000F30B4A506800F440324FF4403090FA39
:10141000A0F0B0FA80F022FA00F001304000B3FBF7
:10142000F0F001E0044870475DF8044B704700BFDE
:10143000003802400024F40000127A0070B5674BB7
:101440001B6803F00F038B4208D2CBB2634A1370C0
:10145000136803F00F03994240F0AE80036813F065
:10146000020F06D05E4CA36823F0F002836813439A
:10147000A3600D460446036813F0010F60D0426874
:10148000012A05D1564B1B6813F4003F0FD195E09C
:10149000931E012B05D8524B1B6813F0007F06D119
:1014A0008EE04F4B1B6813F0020F00F08B804C490D
:1014B0008B6823F0030313438B60FEF721FF06467E
:1014C0006368012B0ED106E0FEF71AFF801B41F284
:1014D0008833984278D8424B9B6803F00C03042B66
:1014E000F2D12DE0022B0ED106E0FEF709FF801BA2
:1014F00041F28833984269D8394B9B6803F00C035A
:10150000082BF2D11CE0032B15D106E0FEF7F8FE04
:10151000801B41F2883398425AD8314B9B6803F0C4
:101520000C030C2BF2D10BE0FEF7EAFE801B41F21C
:10153000883398424ED82A4B9B6813F00C0FF3D196
:10154000264B1B6803F00F039D4207D2EAB2234BE0
:101550001A701B6803F00F039D423DD1236813F0FE
:10156000040F06D01E498B6823F4E052E36813434E
:101570008B60236813F0080F07D0194A936823F48F
:101580006043216943EAC1039360FFF705FF144BF1
:101590009B6803F0F002F02393FAA3F3B3FA83F30A
:1015A00022FA03F30F4AD35CD8400F4B1860002097
:1015B000FEF76EFE002070BD012070BD012070BDE1
:1015C000012070BD012070BD032070BD032070BDDF
:1015D000032070BD032070BD012070BD003C02409F
:1015E00000380240A440000820010020014B186888
:1015F000704700BF2001002084B010B5044603A846
:1016000080E80E00089B012B18D1A36B23F48033D4
:10161000A363E36823F4840323F04003E360E368F7
:1016200023F44013E3600F9B012B03D1E36843F4E1
:101630008013E360204600F0FBFC09E0E36843F020
:101640004003E360204600F0F3FC4FF48033A363D3
:10165000069B012B07D1A36843F00603A360A36890
:1016600043F02003A3600020BDE8104004B07047A1
:10167000836843F00103836000207047836823F090
:10168000010383600020704708B5C36823F0C0439E
:10169000C360012904D1C36843F00053C36004E070
:1016A00019B9C36843F08043C3603220FEF72EFEB1
:1016B000002008BD84B0F8B5054607A880E80E00F4
:1016C000119F27B9AB6B43F40013AB6303E0AB6B23
:1016D00043F40023AB632C460023C5F8003E05F518
:1016E0000066D5F80038C5F800380C9B012B0BD1EB
:1016F000099B23B90021284600F0A8F808E0012141
:10170000284600F0A3F803E00321284600F09EF8E5
:101710001021284600F074F8284600F085F80023D0
:10172000336173614FF0FF32B261F36114E004EB97
:10173000431202F51061D2F80009002804DA4FF0D4
:101740009040C2F8000902E00020C2F8000900221F
:101750000A61FF228A60013307998B42E7D3002395
:1017600016E004EB431202F53060D2F800EBBEF154
:10177000000F04DA4FF0904EC2F800EB03E04FF098
:10178000000EC2F800EB00220261FF2282600133EA
:101790008B42E6D3336923F4807333610A9B012BB8
:1017A00008D1154A3263326B42F4803242F00302B0
:1017B0003263326B0022AA616FF080426A611BB90A
:1017C000AB6943F01003AB61AA690C4B1343AB61E7
:1017D0000D9B1BB1AB6943F00803AB61012F05D131
:1017E000AB6943F0804343F00403AB610020BDE8E4
:1017F000F84004B0704700BF0001800000383C8012
:10180000890141F02001016100230133054A93421F
:1018100005D8026912F0200FF7D10020704703208D
:10182000704700BF400D0300102303610023013304
:10183000054A934205D8026912F0100FF7D1002033
:1018400070470320704700BF400D0300D0F80038F8
:101850001943C0F800180020704700BFD0F80838BE
:1018600000F5006013F0060F10D0836803F0060344
:10187000022B0DD0836803F00603062B0AD0836881
:1018800003F00603042B07D00020704700207047A8
:1018900003207047032070470220704730B44B7814
:1018A000012B23D1D0F81C480B78012202FA03F354
:1018B0009BB22343C0F81C380D7800EB4510D0F8DC
:1018C000003913F4004F31D1D0F800398A68C2F3DF
:1018D0000A04CA7844EA824242EA8552134343F03A
:1018E000805343F40043C0F800391FE0D0F81C28AF
:1018F0000D780123AB4042EA0343C0F81C380B7853
:1019000000EB4310D0F8003B13F4004F0ED1D0F899
:10191000003B8A68C2F30A02C97842EA8142134353
:1019200043F0805343F40043C0F8003B002030BC38
:10193000704700BF38B54B78012B37D10B78044680
:1019400000EB4313D3F8002922F40042C3F8002926
:101950000B7800EB43134FF00062C3F800290B78BB
:1019600000EB43134FF08042C3F8002900220132FC
:101970002C4B9A4251D80B7804EB431303F51063B8
:101980009B6813F0804FF2D10D4604461021FFF7FB
:1019900037FFD4F81C182B78012202FA03F39BB20C
:1019A00021EA0303C4F81C38002038BD0B78044634
:1019B00000EB4313D3F8002B22F40042C3F8002BB2
:1019C0000B7800EB43134FF00062C3F8002B0B7849
:1019D00000EB43134FF08042C3F8002B002201328A
:1019E000104B9A421BD80B7804EB431303F530637A
:1019F0009B6813F0100FF2D1D0F8043843F48063E1
:101A0000C0F80438D0F81C28097801238B4022EA5A
:101A10000343C0F81C38002038BD032038BD032024
:101A200038BD00BF400D030070B582B04B78012B6C
:101A300040F0AB804B69EBB90B7800EB4313D3F864
:101A4000104924F0FF5424F4C014C3F810490B7853
:101A500000EB4313D3F8104944F40024C3F81049B1
:101A60000B7800EB4313D3F81049E40CE404C3F8FB
:101A7000104944E00B7800EB4313D3F81049E40C11
:101A8000E404C3F810490B7800EB4313D3F8104972
:101A900024F0FF5424F4C014C3F810490C7800EB70
:101AA0004414D4F810694B698D682B44013BB3FB97
:101AB000F5F3724D05EAC3433343C4F810390B788C
:101AC00000EB4313D3F810594C69C4F312042C43B0
:101AD000C3F81049CB78012B11D10B7800EB4313DD
:101AE000D3F8104924F0C044C3F810490B7800EB38
:101AF0004313D3F8104944F00054C3F81049012AA5
:101B000006D10B7800EB43130C69C3F814490DE0C0
:101B1000CB78012B0AD04B6943B1D0F834680B78ED
:101B2000012404FA03F33343C0F83438CB78012B93
:101B300017D1D0F8083813F4807F09D10B7800EB67
:101B40004313D3F8004944F00054C3F8004908E0B7
:101B50000B7800EB4313D3F8004944F08054C3F8EA
:101B600000490B7800EB4313D3F8004944F00444D8
:101B7000C3F80049CB78012B7CD114468B8A0A78B4
:101B8000C968009400F02CF974E00B7800EB431363
:101B9000D3F8104BE40CE404C3F8104B0B7800EBC3
:101BA0004313D3F8104B24F0FF5424F4C014C3F8AB
:101BB000104B4B69A3B90B7800EB4313D3F8105BC0
:101BC0008C68C4F312042C43C3F8104B0B7800EB61
:101BD0004313D3F8104B44F40024C3F8104B1DE01A
:101BE0008C682344013BB3FBF4F30C7800EB441402
:101BF000D4F8106B214D05EAC3453543C4F8105B9A
:101C00000D7800EB4515D5F8106B8C689BB204FB82
:101C100003F4C4F312043443C5F8104B012A05D170
:101C20000B7800EB4313CA68C3F8142BCB78012B55
:101C300017D1D0F8083813F4807F09D10B7800EB66
:101C40004313D3F8002B42F00052C3F8002B08E0F6
:101C50000B7800EB4313D3F8002B42F08052C3F80B
:101C6000002B0B7800EB4310D0F8003B43F004430B
:101C7000C0F8003B002002B070BD00BF0000F81F9C
:101C800030B44B78012B6BD14B69EBB90B7800EB7F
:101C90004313D3F8104924F0FF5424F4C014C3F8BC
:101CA00010490B7800EB4313D3F8104944F4002497
:101CB000C3F810490B7800EB4313D3F81049E40C38
:101CC000E404C3F810492CE00B7800EB4313D3F87D
:101CD0001049E40CE404C3F810490B7800EB4313FB
:101CE000D3F8104924F0FF5424F4C014C3F8104969
:101CF0004C698B689C4200D94B610B7800EB431315
:101D0000D3F8104944F40024C3F810490B7800EBD1
:101D10004313D3F810594C69C4F312042C43C3F88D
:101D200010490B7800EB4313D3F8004944F0044406
:101D3000C3F80049012A06D10B7800EB43100B6968
:101D4000C0F8143949E04B69002B46D0D0F834482C
:101D50000B78012202FA03F32343C0F834383CE045
:101D60000B7800EB4313D3F8104BE40CE404C3F8F6
:101D7000104B0B7800EB4313D3F8104B24F0FF54B7
:101D800024F4C014C3F8104B4B690BB18B684B6142
:101D90000B7800EB4313D3F8104B44F40024C3F842
:101DA000104B0B7800EB4313D3F8105B8C68C4F333
:101DB00012042C43C3F8104B012A05D10B7800EB19
:101DC0004313CA68C3F8142B0B7800EB4310D0F808
:101DD000003B43F00443C0F8003B002030BC704798
:101DE00070B49DF80C406CB903339B08002507E0E4
:101DF00000EB023404F5805451F8046B2660013581
:101E00009D42F5D3002070BC704700BF10B4033270
:101E10009208002305E000F58054246841F8044B43
:101E200001339342F7D308465DF8044B704700BF77
:101E30004B78012B16D10B7800EB4313D3F8002914
:101E4000002A05DBD3F8002922F08042C3F80029DC
:101E50000B7800EB4310D0F8003943F40013C0F8BE
:101E6000003915E00B7800EB4313D3F8002B002A60
:101E700005DBD3F8002B22F08042C3F8002B0B784F
:101E800000EB4310D0F8003B43F40013C0F8003BD4
:101E9000002070474B78012B17D10B7800EB4313D0
:101EA000D3F8002922F40012C3F80029CB78023BB2
:101EB000DBB2012B20D80B7800EB4310D0F80039AF
:101EC00043F08053C0F8003916E00B7800EB431361
:101ED000D3F8002B22F40012C3F8002BCB78023B7E
:101EE000DBB2012B08D80B7800EB4310D0F8003B95
:101EF00043F08053C0F8003B00207047D0F8003812
:101F000023F4FE63C0F80038D0F80038090101F46A
:101F1000FE610B43C0F800380020704708B5D0F8C8
:101F2000043823F00203C0F804380320FEF7EEF96A
:101F3000002008BD08B5D0F8043843F00203C0F80B
:101F400004380320FEF7E2F9002008BD42698069E9
:101F50001040704700F50063D0F81808DB6918409E
:101F6000000C704700F50063D0F81808DB691840D2
:101F700080B2704700EB4111D1F8082B00F50060EA
:101F800040691040704700BF10B4D0F81048D0F836
:101F90003438CB40DB01DBB2234300EB411000F5CA
:101FA0001060806818405DF8044B7047406900F08D
:101FB00001007047D0F8003923F4FF6323F00703D2
:101FC000C0F8003900F500639A6802F00602042A9E
:101FD00005D1D0F8002942F00302C0F800295A6860
:101FE00042F480725A600020704700BF10B4002491
:101FF000C0F8104BD0F8104B44F40024C0F8104B3C
:10200000D0F8104B44F01804C0F8104BD0F8104B27
:1020100044F0C044C0F8104B012905D1C0F8142B7E
:102020004FF08023C0F8003B00205DF8044B704760
:10203000002301330C4A934211D80269002AF8DACE
:10204000036943F00103036100230133064A93420D
:1020500007D8026912F0010FF7D100207047032062
:1020600070470320704700BF400D0300D0F81832BE
:102070001BB10020C3F8140270470220704700BF54
:1020800010B5D0F81842D0F81C325BB194F80002B9
:10209000FF2807D09B6894F8012221469847FF2328
:1020A00084F80032002010BD4323038000487047AD
:1020B00000000020432303800048704744000020B4
:1020C0004323038000487047880000200A230380D0
:1020D00000487047CC00002038B50446D0F81852AC
:1020E00000F0C4FFC5F80C02D4F818324BB1D4F894
:1020F0001C32DB6805F50371D5F80402984700200F
:1021000038BD022038BD00BF70B505460C46D0F87A
:1021100018620B7813F0600224D0202A29D1CA88D3
:10212000CAB113F0800F0BD0D0F81C329B68314637
:1021300060789847E2883146284600F081FC18E034
:102140004B7886F80032CB8886F80132CA8831464F
:1021500000F08CFC0DE0D0F81C329B68002248781F
:10216000984706E04B780A2B03D10122024900F080
:1021700067FC002070BD00BFE801002010B50446D8
:10218000812100F0FBFE0121204600F0F7FE8221B4
:10219000204600F0F3FED4F8183253B1D4F81C32C4
:1021A0005B689847D4F8180201F020F80023C4F8BF
:1021B0001832002010BD00BF38B50446037C6BB94F
:1021C0004FF400730222812100F0C6FE4FF4007329
:1021D00002220121204600F0BFFE0AE04023022235
:1021E000812100F0B9FE402302220121204600F0A7
:1021F000B3FE082303228221204600F0ADFE4FF4F7
:10220000077000F0EBFF0546C4F81802E8B1D4F8F7
:102210001C321B6898470023C5F81432C5F81832E1
:10222000237C4BB94FF40073D5F8042201212046DA
:1022300000F00CFF002038BD4023D5F80422012116
:10224000204600F003FF002038BD012038BD00BF4C
:1022500019B1C0F81C12002070470220704700BF5F
:10226000D0F81832C3F80812C3F8102200207047C3
:10227000D0F81832C3F8041200207047D0F81822A2
:102280009AB108B5037C43B94FF40073D2F8042225
:10229000012100F0DBFE002008BD4023D2F804221B
:1022A000012100F0D3FE002008BD0220704700BFCE
:1022B00098B108B50346D0F8140210B10020C3F855
:1022C000140209B1C3F810121846012380F8FC313A
:1022D000027000F0F7FD002008BD0220704700BF2B
:1022E00019B1C0F81412002070470220704700BFD7
:1022F00008B500F021FE002008BD00BF08B5D0F8E9
:10230000143223B11B68984718B1022008BD02207F
:1023100008BD002008BD00BF08B5D0F814325B68C6
:102320009847002008BD00BF38B5044600F5027587
:10233000284600F01DF90123C4F8F431B4F80E3238
:10234000C4F8F83194F8081201F01F03012B08D0EB
:1023500013B1022B0AD00EE02946204600F084FA81
:102360000EE02946204600F0A3FA09E0294620465F
:1023700000F0BAFA04E001F08001204600F00EFE01
:10238000002038BD10B5044611BB1346D0F8F42127
:10239000032A28D1D0F80C11D0F8102191420AD983
:1023A000891AC0F80C118A4228BF0A4692B219460F
:1023B00000F06CFB17E0D0F814321B6923B190F8E1
:1023C000FC21032A00D19847204600F067FB0AE071
:1023D0000A46D0F814329B692BB190F8FC110329FE
:1023E00001D111469847002010BD00BF10B504462A
:1023F000002943D11346D0F8F421022A36D1C1690D
:10240000026A91420CD98A1AC26192B2194600F04E
:1024100025FB00231A461946204600F017FE25E04A
:102420008169B1FBF2F302FB131393B98A4210D80E
:10243000D0F8F83199420CD20022114600F00EFB80
:102440000021C4F8F8110B460A46204600F0FEFDB4
:102450000CE0D4F81432DB682BB194F8FC21032A89
:1024600001D120469847204600F024FB94F8003222
:10247000012B0ED1002384F800320AE00A46D0F87E
:1024800014325B692BB190F8FC11032901D111467C
:102490009847002010BD00BF38B5044640230022F5
:1024A000114600F059FD4025C4F810512B4600227A
:1024B0008021204600F050FD2562012384F8FC3184
:1024C000D4F818322BB1D4F814325B682179204645
:1024D0009847002038BD00BF01740020704700BF3E
:1024E00090F8FC3180F8FD31042380F8FC310020A5
:1024F000704700BF90F8FD3180F8FC310020704734
:1025000008B590F8FC31032B04D1D0F81432DB6904
:1025100003B19847002008BD002070470020704795
:102520000020704708B5012280F8FC21D0F8142261
:10253000526801799047002008BD00BF0346002083
:1025400002E00130C0B201331A78002AF9D1704795
:102550004B88012B0BD110B50446C0F80432D0F8DB
:1025600014329B689847204600F098FA10BD7047D7
:102570000B7803704B7843708B78CA7803EB022397
:1025800043800B794A7903EB022383808B79CA79E4
:1025900003EB0223C380704710B50446802100F08E
:1025A000FDFC0021204600F0F9FC10BD30B583B0E1
:1025B00004460D464A88130A013B062B79D8DFE80A
:1025C00003F0040C2078785C6900D0F810321B68A6
:1025D0000DF10601007C98476FE0037C43B9D0F809
:1025E00014329B6A0DF1060098470223437064E0A1
:1025F000D0F81432DB6A0DF10600984702234370CD
:102600005BE0D2B2052A34D8DFE802F0030B131BDB
:10261000232BD0F810325B680DF10601007C98473F
:102620004BE0D0F810329B680DF10601007C984712
:1026300043E0D0F81032DB680DF10601007C9847CA
:102640003BE0D0F810321B690DF10601007C984781
:1026500033E0D0F810325B690DF10601007C984739
:102660002BE0D0F810329B690DF10601007C9847F1
:1026700023E02946FFF790FF2DE0037C33B9D0F823
:1026800014325B6B0DF10600984716E02946FFF700
:1026900083FF20E0037C43B9D0F814321B6B0DF1AB
:1026A000060098470723437007E02946FFF774FFA9
:1026B00011E02946FFF770FF0DE0BDF8063053B179
:1026C000EA8842B19A4228BF1A46ADF80620014670
:1026D000204600F0B5F903B030BD00BF38B5044660
:1026E0008B88E3B9CB88D3B98D7805F07F0590F856
:1026F000FC31032B02D1FFF74FFF38BD80F8FE51AC
:10270000294600F083FC204600F0C8F91DB10223E1
:1027100084F8FC3138BD012384F8FC3138BD2046F3
:10272000FFF73AFF38BD00BF38B504460D4689783B
:10273000264B1970012903D92946FFF72DFF38BD13
:1027400090F8FC31022B02D0032B15D039E081B177
:102750004160032380F8FC31FFF7D0FD022804D14B
:1027600029462046FFF718FF38BD204600F096F9AD
:1027700038BD00F093F938BD49B9022380F8FC3127
:102780004160FFF7C9FD204600F088F938BD436875
:10279000994213D0D9B2FFF7BFFD0C4B1978616095
:1027A0002046FFF7ABFD022804D129462046FFF75B
:1027B000F3FE38BD204600F071F938BD00F06EF927
:1027C00038BD2946FFF7E8FE38BD00BFE90100200B
:1027D00008B5CB88012B02D0FFF7DEFE08BD90F8CC
:1027E000FC31022B02D0032B08D00CE00146002361
:1027F00041F8083F012200F023F908BD0122011D24
:1028000000F01EF908BDFFF7C7FE08BD08B590F837
:10281000FC31023B012B0CD80123C360D0F80432F9
:102820000BB10323C360022200F10C0100F008F990
:1028300008BDFFF7B1FE08BD10B5044690F8FC31A5
:10284000023B012B0DD84B88012B0CD10023C0F883
:102850000432D0F814329B689847204600F01EF9E5
:1028600010BDFFF799FE10BD08B54B78092B1BD89A
:10287000DFE803F011171A141A08051A0E0BFFF7F8
:1028800095FE13E0FFF72AFF10E0FFF74DFF0DE084
:10289000FFF79EFF0AE0FFF7B9FF07E0FFF758FEDA
:1028A00004E0FFF7C9FF01E0FFF776FE002008BD56
:1028B00038B504460D4690F8FC31032B0FD10B7947
:1028C000012B09D8D0F814329B689847EB8843B99C
:1028D000204600F0E3F804E0FFF75EFE01E0FFF7BA
:1028E0005BFE002038BD00BF38B505460C468A881F
:1028F0000B7803F06003202B04D1D0F814329B68CE
:1029000098477DE0D1B26378012B26D0002B48D0C8
:10291000032B75D190F8FC31022B02D0032B07D08A
:1029200017E000296CD080296AD000F037FB67E0FF
:10293000638823B919B1802901D000F02FFBD5F8A5
:1029400014329B68214628469847284600F0A6F88E
:1029500056E02146FFF720FE52E090F8FC31022BB2
:1029600002D0032B07D018E0002949D0802947D096
:1029700000F014FB44E06388002B41D111F07F0F7D
:1029800007D000F01BFBD5F814329B68214628467F
:102990009847284600F082F832E02146FFF7FCFD18
:1029A0002EE090F8FC31022B02D0032B06D024E05D
:1029B00011F07F0F24D000F0F1FA21E012F0800F27
:1029C00006D001F07F04013400EB0414043405E068
:1029D00001F07F04103400EB04140434284600F0A6
:1029E000FDFA10B10123236001E0002323600222DD
:1029F0002146284600F024F802E02146FFF7CCFDEE
:102A0000002038BDD0B170B50D4616460446FFF71C
:102A100095FD0130400080B23080287003236B7038
:102A2000022307E05A1CD2B20134E9540233DBB26C
:102A30000021A95421780029F4D170BD704700BF4E
:102A400010B513460222C0F8F4218361C3610A461F
:102A5000002100F0EBFA002010BD00BF08B51346BE
:102A60000A46002100F0E2FA002008BD10B5134626
:102A70000322C0F8F421C0F80831C0F80C310A462E
:102A8000002100F0E3FA002010BD00BF08B5134696
:102A90000A46002100F0DAFA002008BD08B5042338
:102AA000C0F8F43100231A46194600F0BFFA00209E
:102AB00008BD00BF08B50523C0F8F43100231A464D
:102AC000194600F0C3FA002008BD00BFFEE700BFB2
:102AD00000B595B0002101912A4B1A6C42F080524A
:102AE0001A641B6C03F080530193019B0291264BE7
:102AF0001A6842F480421A601B6803F48043029310
:102B0000029B012308934FF48033099302230E9311
:102B10004FF480020F92082210924FF4A872119283
:102B200012930723139308A8FEF752FA18B13A211B
:102B30001648FFF7CBFF0F230393022304930023D0
:102B400005934FF4A05306930793052103A8FEF7BE
:102B500075FC18B148210D48FFF7B8FFFEF746FD98
:102B60000B4BA3FB00308009FDF732FC0420FDF77E
:102B700045FC002211464FF0FF30FDF7EBFB15B08E
:102B80005DF804FB0038024000700040BC400008C3
:102B9000D34D621008B5FDF791FBFFF799FF04498B
:102BA000044800F0DFFB4FF47A70FDF7AFFBF6E767
:102BB00010010020CC40000882B0002100910B4B96
:102BC0001A6B42F080021A631A6B02F080020092C4
:102BD000009A01911A6B42F001021A631B6B03F019
:102BE00001030193019B02B0704700BF003802400F
:102BF00008B500F079F808BD08B5FFF7DDFFFFF76D
:102C0000F7FF0320FDF794FB002211466FF00B0045
:102C1000FDF7A0FB002211466FF00A00FDF79AFBBA
:102C2000002211466FF00900FDF794FB00221146C7
:102C30006FF00400FDF78EFB002211466FF00300D9
:102C4000FDF788FB002211466FF00100FDF782FBC3
:102C5000002211464FF0FF30FDF77CFB08BD00BF9E
:102C6000704700BFFEE700BFFEE700BFFEE700BF02
:102C7000FEE700BF704700BF704700BF704700BF4E
:102C800008B5FDF735FBFDF7CBFB08BD08B50248DD
:102C9000FDF78AFD08BD00BFA00400200F49D1F850
:102CA000883043F47003C1F888300D4B1A6842F045
:102CB00001021A60002098601A6822F0847222F4DF
:102CC00080321A60074A5A601A6822F480221A6019
:102CD000D8604FF000638B60704700BF00ED00E0EC
:102CE000003802401030002410B5094C0022094978
:102CF0002046FFF7DDFA08492046FFF7F1FA0749B9
:102D00002046FFF7A5FA2046FFF7F2FA10BD00BFF4
:102D1000FC0100204C010020D800002024010020EC
:102D2000002070470020704710B50146094A13780B
:102D30000133DBB21370402B02D10022054B1A7015
:102D4000054C2046FFF794FA2046FFF797FA00203B
:102D500010BD00BFEA010020FC01002010B5064CA8
:102D6000002206492046FFF77BFA05492046FFF777
:102D70007FFA002010BD00BFFC010020600400208D
:102D8000200400200368B3F1A04F29D110B586B00C
:102D90004FF4C053019302230293002403940323AE
:102DA00004930A23059301A90E48FDF73DFB0E4B42
:102DB0005A6B42F080025A6300945A6C42F480428B
:102DC0005A645B6C03F480430093009B22462146C7
:102DD0004320FDF7BFFA4320FDF7EEFA06B010BD21
:102DE000704700BF000002400038024008B500F5FF
:102DF0006F71D0F8EC03FFF797FA08BD08B5C1EB87
:102E0000C10293000344D3F80422D0F8EC03FFF787
:102E1000B9FA08BD08B5C1EBC102930003445A6C6E
:102E2000D0F8EC03FFF7E2FA08BD00BF08B5D0F810
:102E3000EC03FFF765FB08BD10B50446C3680BB98A
:102E4000002100E00121D4F8EC03FFF745FBD4F8A2
:102E5000EC03FFF721FB10BD10B50446D0F8EC03DE
:102E6000FFF73EFB2268D2F8003E43F00103C2F8B0
:102E7000003E236A23B1034A136943F0060313613A
:102E800010BD00BF00ED00E008B5D0F8EC03FFF77F
:102E900031FB08BD08B5D0F8EC03FFF73FFB08BDD8
:102EA00008B5D0F8EC03FFF737FB08BD08B5D0F83C
:102EB000EC03FFF735FB08BD08B5D0F8EC03FFF7CE
:102EC00031FB08BD037883BB10B503461848C0F832
:102ED000EC33C3F820024FF0A043036004234360A7
:102EE0000222C2600023036143618261C361036205
:102EF00043620122C2620363FDF7CEFB20B14FF4AF
:102F00009A710C48FFF7E2FD094C80212046FEF73C
:102F10005BF8402200212046FEF732F88022012192
:102F20002046FEF72DF8002010BD0020704700BF9E
:102F3000A0040020D040000808B5D0F82002FDF71A
:102F40001DFC10B1022802D003E0002008BD0120C2
:102F500008BD022008BD00BF10B51C46134622461E
:102F6000D0F82002FDF7F0FE10B1022802D003E0F5
:102F7000002010BD012010BD022010BD08B5D0F802
:102F80002002FDF715FF10B1022802D003E0002057
:102F900008BD012008BD022008BD00BF08B5D0F85B
:102FA0002002FDF78FFF10B1022802D003E00020BD
:102FB00008BD012008BD022008BD00BF08B5D0F83B
:102FC0002002FDF7B1FF10B1022802D003E000207B
:102FD00008BD012008BD022008BD00BFD0F8202296
:102FE00011F0800F08D001F07F01C1EBC1018B000F
:102FF000134493F83A00704701F07F01C1EBC1011F
:103000008B00134493F8FA01704700BF08B5D0F85D
:103010002002FDF787FE10B1022802D003E0002055
:1030200008BD012008BD022008BD00BF08B5D0F8CA
:103030002002FDF71FFF10B1022802D003E000209C
:1030400008BD012008BD022008BD00BF08B5D0F8AA
:103050002002FDF7D9FE10B1022802D003E00020C3
:1030600008BD012008BD022008BD00BF08B5D0F88A
:103070002002FDF7F5FE08BD12230B8000487047C3
:103080003401002004230B800048704748010020D1
:1030900008B50A4620B905490548FFF7B3FC03E027
:1030A00002490348FFF7AEFC004808BD9008002025
:1030B000E440000810B5044C0A4621460348FFF7D7
:1030C000A1FC204610BD00BF90080020FC40000875
:1030D00008B50A4620B905490548FFF793FC03E007
:1030E00002490348FFF78EFC004808BD9008002005
:1030F0001041000808B50A4620B905490548FFF700
:1031000081FC03E002490348FFF77CFC004808BD4E
:10311000900800202041000808B50A4620B905495A
:103120000548FFF76FFC03E002490348FFF76AFC1C
:10313000004808BD900800202C410008DFF834D07A
:10314000002103E00C4B5B58435004310B480C4BFF
:1031500042189A42F6D30B4A02E0002342F8043B9D
:10316000094B9A42F9D3FFF799FD00F011F8FFF7E8
:1031700011FD704700000220DC4100080000002023
:10318000CC010020CC010020940A0020FEE70000C2
:1031900070B50E4B0E4CE41AA41000251E46A54235
:1031A00004D056F8253098470135F8E700F06EFF57
:1031B000084C094BE41AA41000251E46A54204D071
:1031C00056F8253098470135F8E770BDD44100081E
:1031D000D4410008D8410008D4410008024B014600
:1031E000186800F061B800BFC8010020024B01461A
:1031F000186800F00BB800BFC80100200244034665
:10320000934202D003F8011BFAE7704738B5054630
:10321000002946D051F8043C0C1F002BB8BFE4181D
:1032200000F092F91F4A1368114613B963601460E5
:1032300032E0A3420ED92268A018834204BF186866
:103240005B68636004BF121822600C6024E0A24235
:1032500003D813465A68002AF9D118681918A142F0
:103260000BD12168014458188242196014D11068AA
:1032700052685A60014419600EE002D90C232B6099
:103280000AE021686018824204BF106852686260D8
:1032900004BF091821605C602846BDE8384000F092
:1032A00054B938BDF001002070B5CD1C25F00305E0
:1032B00008350C2D38BF0C25002D064601DBA94230
:1032C00002D90C23336046E000F03EF9234B1C6822
:1032D0001A462146A1B10B685B1B0ED40B2B03D9F8
:1032E0000B60CC18CD501EE08C420DBF63684B685C
:1032F0006360136018BF0C4615E00C464968E9E7A7
:10330000174C23681BB9304600F044F8206029466A
:10331000304600F03FF8431C18D0C41C24F00304CE
:10332000A0420DD12560304600F00FF904F10B00EA
:10333000231D20F00700C31A0ED05A42E25070BD80
:10334000211A304600F026F80130EBD10C2333600F
:10335000304600F0FAF8002070BD00BFF0010020F8
:10336000EC0100200FB40A4B13B51C6824B1A3690B
:1033700013B9204600F05EF805AB049AA1680193EA
:10338000204600F00DF902B0BDE8104004B07047CF
:10339000C801002038B5064C0023054608462360C6
:1033A00000F05EFE431C02D1236803B12B6038BDE0
:1033B000900A0020014900F0A9B800BF713E000842
:1033C000002310B504460360436083608181436637
:1033D000C281036143618361194608225C30FFF7B3
:1033E0000DFF054B6362054BA362054BE362054B82
:1033F0002462236310BD00BF113B0008333B00086B
:103400006B3B00088F3B000870B568234D1E5D4381
:103410000E4605F17401FFF747FF044640B1002155
:1034200080E842000C30A06005F16802FFF7E6FE7C
:10343000204670BD836910B5044633BB8364C36402
:103440000365124B124A1B688262984204BF012333
:10345000836100F01FF86060204600F01BF8A06058
:10346000204600F017F80022E06004216068FFF7B2
:10347000A7FF01220921A068FFF7A2FF0222122163
:10348000E068FFF79DFF0123A36110BD3C410008E8
:10349000B5330008F8B51C4B1E68B369074613B96D
:1034A0003046FFF7C7FF4836B4687368013B04D461
:1034B000B4F90C507DB16834F8E733680BB1366865
:1034C000F2E704213846FFF79FFF30600028F6D16D
:1034D0000C233B60F8BD4FF6FF73E3810123A3810A
:1034E00065662560A560656025616561A561082246
:1034F000294604F15C00FFF781FE6563A563A564BE
:10350000E5642046F8BD00BF3C4100082DE9F843C2
:103510008046894600F14804002694B1A568676892
:10352000013F0CD4AB89012B07D9B5F90E3001331B
:1035300003D029464046C84706436835F0E724686B
:10354000EBE73046BDE8F883704770479368013B6E
:10355000002B10B4936009DA9469A34202DBCBB26A
:103560000A2B03D15DF8044B00F016BB1368581CFE
:1035700010601970C8B25DF8044B7047F8B5064684
:103580000F461446D518AC4208D03A4614F8011B31
:103590003046FFF7DBFF431CF5D100E00020F8BD0B
:1035A0002DE9F04F9DB00C4617460393064618B11F
:1035B00083690BB9FFF73EFF7F4B9C4201D17468D2
:1035C00008E07E4B9C4201D1B46803E07C4B9C42F6
:1035D00008BFF468A38918070CD5236953B10023E9
:1035E000099320238DF8293030238DF82A30DFF815
:1035F000D4B144E02146304600F034FB0028EED040
:103600004FF0FF30D5E0039A111D12680391002A94
:1036100080F28C80524243F002000792049098F8A6
:1036200000302E2B00F08480032298F800106548AB
:10363000FCF7DEFD48B14023CBEB000003FA00F0BD
:10364000049B1843049008F1010898F800105E48A4
:103650008DF82810062208F10107FCF7C9FD0028A3
:1036600000F09580594B002B40F08880039B073376
:1036700023F0070308330393099B53440993B84687
:10368000454615F8013B1BB9B8EB07090FD003E01D
:10369000252BF9D0A846F3E74B463A46214630465B
:1036A000FFF76CFF01307FD0099B4B44099398F8DA
:1036B0000030002B78D000234FF0FF3204930793A3
:1036C000059206938DF853301A9301270522297825
:1036D0003F48FCF78DFD05F10108049B38B13C4AD9
:1036E000801A07FA00F0184304904546EEE7D90621
:1036F00044BF20228DF853201A0744BF2B228DF897
:1037000053202A782A2A3FF47EAF079A00210A2004
:10371000A846013598F80030303B092B03D800FB50
:1037200002320121F4E700293FF479AF079276E7EE
:1037300098F801302A2B0BD1039B1A1D1B680392AA
:10374000002BB8BF4FF0FF3308F1020805936BE779
:103750000023059308F1010019460A25804601302F
:1037600098F80020303A092A03D805FB01210123EB
:10377000F4E7002B3FF458AF059155E703AB0093F6
:103780002246144B04A93046AFF3008007E003AB98
:10379000009322460F4B04A9304600F093F8B0F195
:1037A000FF3F82467FF468AFA3895B063FF528AFF1
:1037B00009981DB0BDE8F08F404100086041000845
:1037C00080410008A6410008AA410008000000004E
:1037D000A04100087D3500082DE9F04791461F46BD
:1037E0000A698B68DDF820809342B8BF1346C9F898
:1037F000003091F8432006460C4612B10133C9F857
:1038000000302368990642BFD9F800300233C9F866
:103810000030256815F0060510D104F1190A07E0FB
:103820000123524639463046C04701301AD001358F
:10383000E368D9F800209B1A9D42F1DB94F84330ED
:103840002268003318BF012392060FD5E1185A1CD5
:10385000302081F84300224494F8451082F8431048
:10386000023303E04FF0FF30BDE8F08704F143027C
:1038700039463046C0470130F4D02268D9F80050AC
:10388000E36802F00602042A08BF5D1B2269A368F0
:103890000CBF25EAE57500259342C4BF9B1AED18BD
:1038A0004FF000091A344D4509D00123224639460C
:1038B0003046C0470130D5D009F10109F3E70020B7
:1038C000BDE8F0872DE9F04317460A7E85B06E2AE1
:1038D000984606460C460C9B01F1430E00F0AE8064
:1038E00011D8632A22D009D8002A00F0BB80582AB8
:1038F00040F0CA8081F84520834955E0642A1ED0F3
:10390000692A1CD0C0E0732A00F0B08009D86F2A61
:103910002ED0702A40F0B8800A6842F020020A6077
:103920003EE0752A24D0782A3AD0ADE01A6801F139
:103930004205111D1960136884F84230A8E021681F
:103940001A6811F0800F02D0111D196008E011F003
:10395000400F02F10401196002D0B2F9003000E01A
:103960001368002B3CDA2D225B4284F8432037E0B9
:1039700021681A6811F0800F02D0111D196007E04C
:1039800011F0400F02F10401196001D0138800E02A
:103990001368227E5C496F2A14BF0A2208221BE0AA
:1039A00078225A4984F845202268186812F0800F5E
:1039B00000F104051D6003D1550601D5038800E020
:1039C0000368D00744BF42F0200222601BB922687E
:1039D00022F0200222601022002084F8430001E03F
:1039E00049490A226568A560002D08DB206820F09F
:1039F000040020602BB9002D7DD175460CE0002B12
:103A000079D07546B3FBF2F002FB1033CB5C05F8BE
:103A1000013D03460028F5D1082A0BD12368DA07B7
:103A200008D5236962689A42DEBF302305F8013C5D
:103A300005F1FF35C5EB0E0323612EE008681A6817
:103A4000496910F0800F03D0101D1860136808E05A
:103A500010F0400F02F104001860136801D01980C3
:103A600000E0196000232361754616E01A68111DF5
:103A700019601568626800212846FCF7B9FB08B197
:103A8000401B6060636804E004F1420584F8422052
:103A900001232361002384F84330CDF800803B46A6
:103AA00003AA21463046FFF797FE013002D14FF0BE
:103AB000FF3026E023692A4639463046C0470130A8
:103AC000F5D023689B0710D5002504F1190907E0FC
:103AD00001234A4639463046C0470130E7D0013518
:103AE000E368039A9B1A9D42F2DBE068039B9842CD
:103AF000B8BF184605E00B7884F8423004F142055F
:103B00008AE705B0BDE8F083B1410008C241000872
:103B100010B50C46B1F90E1000F046FA0028ABBF04
:103B2000636DA3891B1823F48053ACBF6365A38125
:103B300010BD2DE9F0411F468B89DB0505460C467B
:103B4000164605D502230022B1F90E1000F0BAF98D
:103B5000A389B4F90E1023F48053A38132463B4667
:103B60002846BDE8F04100F06BB810B50C46B1F93D
:103B70000E1000F0A7F9431CA38915BF606523F45C
:103B8000805343F48053A38118BFA38110BDB1F9C2
:103B90000E1000F0D5B80000F8B50F4614460546E3
:103BA00018B183690BB9FFF745FC224B9C4201D148
:103BB0006C6808E0204B9C4201D1AC6803E01F4BCD
:103BC0009C4208BFEC68A369A360A3891A0709D5C2
:103BD00023693BB123682069181A63699842FEB2D1
:103BE0000FDB08E02146284600F03CF80028F1D021
:103BF0004FF0FF361BE02146284600F039F9002837
:103C0000F6D1A368013BA36023685A1C22601F7091
:103C100063690130984204D0A389DB0707D50A2ED7
:103C200005D12146284600F023F90028E0D130468E
:103C3000F8BD00BF40410008604100088041000815
:103C400038B5074C054608461146002222601A4640
:103C500000F014FA431C02D1236803B12B6038BD75
:103C6000900A0020324B70B51D6806460C4625B1FF
:103C7000AB6913B92846FFF7DDFB2E4B9C4201D1FF
:103C80006C6808E02C4B9C4201D1AC6803E02B4BE4
:103C90009C4208BFEC68B4F90C309AB215071DD4E9
:103CA000D00602D4092232603AE0510712D5616B86
:103CB00041B104F14403994202D03046FFF7A6FA1D
:103CC00000236363A38923F02403A381002363609B
:103CD00023692360A38943F00803A38123694BB9B7
:103CE000A38903F42073B3F5007F03D02146304647
:103CF00000F01EF9A28912F0010305D00023A36091
:103D000063695B42A36103E0920758BF6369A360E4
:103D100023695BB9B4F90C3003F0800080B230B194
:103D200043F04003A3814FF0FF3070BD002070BD11
:103D3000C80100204041000860410008804100089F
:103D400038B5064C002305460846236000F060F9AC
:103D5000431C02D1236803B12B6038BD900A0020B8
:103D60008A892DE9F041054610070C4659D44B6865
:103D7000002B02DC0B6C002B17DDE66AAEB102F4FF
:103D80008052002392B22F682B600AB1606D15E05B
:103D9000216A01232846B047411C0FD12B686BB123
:103DA0001D2B01D0162B03D12F600020BDE8F08120
:103DB000A38943F04003A381BDE8F081A3895A079A
:103DC00005D56368C01A636B0BB1236CC01A00235E
:103DD0000246E66A216A2846B047431CA38906D1F9
:103DE00029681D293AD8214ACA40D60736D500226B
:103DF0006260D9042269226004D5421C01D12B687B
:103E000003B96065616B2F600029CED004F14403D3
:103E1000994202D02846FFF7F9F900206063BDE817
:103E2000F0810F69002FC0D093070E6808BF4B695F
:103E30000F6018BF0023C7EB06088B6002E0074441
:103E4000C0EB0808B8F1000FAFDD43463A46216ADF
:103E5000A66A2846B0470028F1DCA38943F0400356
:103E6000A3814FF0FF30BDE8F08100BF010040208A
:103E700038B50B6905460C46DBB118B183690BB93F
:103E8000FFF7D8FA0C4B9C4201D16C6808E00B4B51
:103E90009C4201D1AC6803E0094B9C4208BFEC682E
:103EA000B4F90C302BB121462846BDE83840FFF765
:103EB00057BF002038BD00BF4041000860410008E6
:103EC0008041000838B5074C0546084611460022D7
:103ED00022601A4600F0B4F8431C02D1236803B1F3
:103EE0002B6038BD900A002070B50E46B1F90E1057
:103EF000002990B014461D4606DA00232B60B389D2
:103F00001A060ED540230EE001AA00F05FF8002843
:103F1000F3DB029A02F47042A2F500535A425A416E
:103F20002A604FF480630020236010B070BD000051
:103F30008B8973B59E0705460C4610D401AB6A46C3
:103F4000FFF7D2FF009906462846FFF7ADF968B99A
:103F5000B4F90C309A0522D443F00203A38104F192
:103F60004703236023610123636118E00D4BAB62BB
:103F7000A389206043F08003A381009B6361019BC0
:103F800020614BB1B4F90E10284600F031F818B199
:103F9000A38943F00103A381A0893043A08102B02B
:103FA00070BD00BFB533000838B5074C054608465C
:103FB0001146002222601A4600F04AF8431C02D142
:103FC000236803B12B6038BD900A002038B5074C38
:103FD0000023054608461146236000F021F8431CE3
:103FE00002D1236803B12B6038BD00BF900A0020C6
:103FF00038B5064C002305460846236000F018F843
:10400000431C02D1236803B12B6038BD900A002005
:10401000024B58221A604FF0FF307047900A002080
:10402000024B58221A604FF0FF307047900A002070
:10403000024B58221A600020704700BF900A0020EF
:10404000024B58221A604FF0FF307047900A002050
:10405000024B58221A604FF0FF307047900A002040
:10406000044A05491368002B08BF0B46184410602A
:1040700018467047F4010020980A0020024B58228D
:104080001A604FF0FF307047900A0020F8B500BF6B
:10409000F8BC08BC9E467047F8B500BFF8BC08BC29
:0440A0009E46704781
:1040A40000000000000000000102030406070809E4
:1040B40000000000010203042E2E2F5372632F6DA3
:1040C40061696E2E63000000257300002E2E2F53AD
:1040D40072632F757362645F636F6E662E63000094
:1040E40053544D3332205669727475616C20436F9A
:1040F4006D506F727400000053544D6963726F65A4
:104104006C656374726F6E696373000030303030B5
:10411400303030303030314100000000434443201F
:10412400436F6E666967000043444320496E7465BB
:1041340072666163650000006801002000000000F1
:10414400000000000000000000000000000000006B
:10415400000000000000000000000000000000005B
:10416400000000000000000000000000000000004B
:10417400000000000000000000000000000000003B
:10418400000000000000000000000000000000002B
:10419400000000000000000000000000232D302B70
:1041A4002000686C4C006566674546470030313234
:1041B400333435363738394142434445460030318B
:1041C40032333435363738396162636465660000EA
:0441D400B501000829
:0441D8009101000849
:1041DC0009024300020100C032090400000102027E
:1041EC000100052400100105240100010424020231
:1041FC0005240600010705820308001009040100CC
:10420C00020A0000000705010240000007058102B8
:10421C004000000009024300020100C03209040002
:10422C000001020201000524001001052401000117
:10423C00042402020524060001070582030800106D
:10424C0009040100020A0000000705010200020037
:10425C00070581020002000009074300020104C0A7
:10426C0032090400000102020100052400100105BE
:10427C002401000104240202052406000107058222
:10428C00030800FF09040100020A000000070501F1
:10429C000240000007058102400000000A060002EF
:1042AC000000004001000000B92100087D21000839
:1042BC000921000800000000812000086D20000882
:1042CC00D9200008000000000000000000000000E1
:1042DC00B5200008A9200008C1200008CD20000846
:1042EC0068656C6C6F20776F726C642121210A00F9
:1042FC000024F4005D2D0008212D0008252D000858
:10430C00292D0008120100020202004083044057CC
:10431C0000020102030100000403090479300008C3
:10432C0085300008B530000891300008D130000805
:10433C00F530000819310008000000004041000869
:10434C0060410008804100080000000000000000EF
:10435C000000000000000000000000000000000051
:10436C000000000000000000000000000000000041
:10437C000000000000000000000000000000000031
:10438C000000000000000000000000000000000021
:0C439C000000000000000000680100208C
:040000050800313D81
:00000001FF
